:100000000C94DF000C9407010C9407010C94070179
:100010000C9407010C9407010C9407010C94070140
:100020000C9407010C9407010C9407010C94070130
:100030000C9407010C9407010C9407010C94070120
:100040000C9468070C9407010C94D8070C94B20721
:100050000C9407010C9407010C9407010C94070100
:100060000C9407010C94070100407A10F35A00A089
:10007000724E18090010A5D4E80000E87648170071
:1000800000E40B54020000CA9A3B000000E1F505B1
:10009000000080969800000040420F000000A086FB
:1000A00001000000102700000000E803000000002D
:1000B0006400000000000A000000000001000000D1
:1000C00000002C76D888DC674F0823DFC1DFAE59EB
:1000D000E1B1B796E5E3E453C63AE651997696E87E
:1000E000E6C28426EB898C9B62ED407C6FFCEFBC02
:1000F0009C9F40F2BAA56FA5F490055A2AF75C932D
:100100006B6CF9676DC11BFCE0E40D47FEF520E662
:10011000B500D0ED902E0300943577050080841E45
:10012000080000204E0A000000C80C333333330FA0
:10013000986E12831141EF8D2114893BE65516CF3D
:10014000FEE6DB18D1844B381BF77C1D901DA4BB49
:10015000E424203284725E228100C9F124ECA1E5FE
:100160003D2700000000240027002A0000000000B6
:10017000250028002B0000000008000201000003F9
:100180000407000000000000000000000000230041
:1001900026002900040404040404040402020202E8
:1001A000020203030303030301020408102040803A
:1001B0000102040810200102040810200A0811247A
:1001C0001FBECFEFD8E0DEBFCDBF21E0A8E3B1E096
:1001D00001C01D92A53FB207E1F711E0A0E0B1E038
:1001E000ECE3F1E202C005900D92A833B107D9F714
:1001F00010E0CFEDD0E004C02197FE010E94A40ED4
:10020000CE3DD107C9F70E9457080C949C100C945E
:100210000000CF92DF92EF92FF92CF93DF93C82F2F
:100220008091E4018C3009F45EC038F48B30F1F039
:1002300060E070E080EC9FE74FC085518230C0F7EE
:10024000D091E0016D2F70E0762F662766277F77CB
:100250008091E101682B90E080E00E947C0C2DEC05
:100260003CEC4CEC5DE30E94DD0C59C06091E00178
:1002700070E090E080E00E947C0C6B017C01D091EA
:10028000E101D7FF0AC0AC019B0160E070E080E8AB
:100290009FEB0E94D20D6B017C01DF706D2F70E02F
:1002A00090E080E00E947E0C2DEC3CEC4CEC5DE399
:1002B0000E94DD0CA70196010E94D30DCC2361F0B2
:1002C00026E636E646EE5FE30E94DD0C20E030E0F5
:1002D00040E052E40E94D30DDF91CF91FF90EF9068
:1002E000DF90CF900895D091E0016D2F70E090E005
:1002F00080E00E947C0C6B017C016091E1016F70D9
:1003000070E090E080E00E947E0C2DEC3CEC4CEC28
:100310005DE30E94DD0CA70196010E94D30DD7FF7B
:10032000CDCF9058CBCFCF92DF92EF92FF92CF9369
:10033000DF93B091E501A0E08111AB2F8091E60140
:1003400090E0880F991FAC0146575E4FC090EB01BB
:10035000D090EC01E090ED01F090EE0130E020E073
:10036000FA01C591D491E881B90190E080E0EB23D6
:10037000EA130AC02F5F3F4F6C157D058E059F0560
:1003800078F36FEF7FEFCB01DF91CF91FF90EF908C
:10039000DF90CF90089590E0FC01EA58FE4F249141
:1003A000FC01E855FE4F3491FC01EC56FE4FE49100
:1003B000EE23C9F0222339F0233001F1A8F42130D3
:1003C00019F1223029F1F0E0EE0FFF1FE459FE4F42
:1003D000A591B4918FB7F894EC91611126C0309536
:1003E0003E233C938FBF08952730A9F02830C9F0F1
:1003F000243049F7809180008F7D03C08091800078
:100400008F7780938000DFCF84B58F7784BDDBCF7B
:1004100084B58F7DFBCF8091B0008F778093B00043
:10042000D2CF8091B0008F7DF9CF3E2BDACFCF9322
:10043000DF9390E0FC01E855FE4F24918C569E4FCF
:10044000FC0184918823D1F090E0880F991FFC0172
:10045000EE59FE4FA591B491FC01E459FE4FC591B0
:10046000D491623071F49FB7F8943C91822F8095BB
:1004700083238C93E8812E2B28839FBFDF91CF911C
:1004800008958FB7F894EC912E2B2C938FBFF6CF55
:100490003FB7F8948091390190913A01A0913B01C6
:1004A000B0913C0126B5A89B05C02F3F19F00196DD
:1004B000A11DB11D3FBFBA2FA92F982F8827BC01BE
:1004C000CD01620F711D811D911D42E0660F771FE6
:1004D000881F991F4A95D1F708958F929F92AF92E6
:1004E000BF92CF92DF92EF92FF924B015C010E948C
:1004F00048026B017C010E9448026C197D098E093B
:100500009F09683E734081059105A8F321E0821A96
:100510009108A108B10888EEC80E83E0D81EE11C3E
:10052000F11C81149104A104B10429F7FF90EF900C
:10053000DF90CF90BF90AF909F908F900895CF9213
:10054000DF92EF92FF920F931F93CF93DF93CDB77C
:10055000DEB7C054D1400FB6F894DEBF0FBECDBF9A
:100560002FB7F89480913D0190913E01A0913F01F9
:10057000B09140012FBF4091E7015091E801609197
:10058000E9017091EA018C019D01041B150B260BFA
:10059000370BB901A801403D57406105710590F442
:1005A0008091EF01C05CDE4F0FB6F894DEBF0FBE46
:1005B000CDBFDF91CF911F910F91FF90EF90DF9012
:1005C000CF9008958093E7019093E801A093E9010B
:1005D000B093EA011092E2011092E1011092E00161
:1005E0001092DF011092DE0162E08091E3010E942F
:1005F000170261E070E080E090E00E946D0261E02F
:100600008091E3010E94170260E08091E3010E9463
:10061000CB018091E4018551823020F58BE291E19C
:100620000197F1F762E08091E3010E941702809147
:10063000F00190E08230910538F0880F991F880F03
:10064000991F05970197F1F7F89480E00E949301B4
:100650006F3F7F4F8F4F9F4F61F41092EF0178945F
:1006600080E0A0CF64E170E080E090E00E946D0245
:10067000D9CF81E00E9493016F3F7F4F8F4F9F4FF3
:1006800061F38E010F5F1F4F6E018FEBC81A8EEF63
:10069000D80A780180E00E949301F701608371839A
:1006A0008283938381E00E949301F70164837583C1
:1006B00086839783F8E0EF0EF11CEC14FD0451F7EC
:1006C000789430E020E0F801C080D180E280F380AF
:1006D0004481558166817781FFEFCF16DF06EF06F3
:1006E000FF0631F04F3F8FEF58076807780719F47E
:1006F0001092EF01B5CFF90183E0F595E7958A9562
:10070000E1F7E252FE4F8081880FC416D506E60657
:10071000F70610F180832F5F3F4F085F1F4F28328D
:10072000310589F64091E2012091DE018091DF01DF
:10073000280F3327331F8091E001280F311D80914E
:10074000E101820F932F911D99274817190681F611
:1007500081E08093EF0126CF8160DCCFAF92BF9222
:10076000CF92DF92EF92FF920F931F93CF93DF937D
:100770006C017B018B01040F151FEB015E01AE18AC
:10078000BF08C017D10759F06991D601ED91FC91CE
:100790000190F081E02DC6010995892B79F7C501FB
:1007A000DF91CF911F910F91FF90EF90DF90CF904D
:1007B000BF90AF900895FC01538D448D252F30E0FC
:1007C000842F90E0821B930B541710F0CF9608955E
:1007D00001970895FC01918D828D981761F0A28D8B
:1007E000AE0FBF2FB11D5D968C91928D9F5F9F7351
:1007F000928F90E008958FEF9FEF0895FC01918D07
:10080000828D981731F0828DE80FF11D858D90E073
:1008100008958FEF9FEF0895FC01918D228D892F10
:1008200090E0805C9F4F821B91098F7399270895F8
:1008300081E491E00E940C0421E0892B09F420E07E
:10084000822F089580E090E0892B29F00E941804FF
:1008500081110C9400000895FC01A48DA80FB92FFC
:10086000B11DA35ABF4F2C91848D90E001968F73D8
:100870009927848FA689B7892C93A089B1898C91F7
:10088000837080648C93938D848D981306C0028846
:10089000F389E02D80818F7D80830895EF92FF9210
:1008A0000F931F93CF93DF93EC0181E0888F9B8D93
:1008B0008C8D98131AC0E889F989808185FF15C04D
:1008C0009FB7F894EE89FF896083E889F989808170
:1008D0008370806480839FBF81E090E0DF91CF913F
:1008E0001F910F91FF90EF900895F62E0B8D10E061
:1008F0000F5F1F4F0F731127E02E8C8D8E110CC0D0
:100900000FB607FCFACFE889F989808185FFF5CF1A
:10091000CE010E942C04F1CFEB8DEC0FFD2FF11DC9
:10092000E35AFF4FF0829FB7F8940B8FEA89FB8957
:1009300080818062CFCFCF93DF93EC01888D8823B5
:10094000B9F0AA89BB89E889F9898C9185FD03C032
:10095000808186FD0DC00FB607FCF7CF8C9185FF17
:10096000F2CF808185FFEDCFCE010E942C04E9CF2C
:10097000DF91CF91089542E050E068E171E081E4B9
:1009800091E00C94AE034F925F926F927F928F92A0
:100990009F92AF92BF92CF92DF92EF92FF920F930E
:1009A000CF93DF93CDB7DEB728970FB6F894DEBFAD
:1009B0000FBECDBF6B017C0149015A0101110EC070
:1009C00026E636E646EE5FE30E94DD0C20E030E0EE
:1009D00040E052E40E94D30D6B017C0120E030E046
:1009E00048E852E4C701B6010E94D20D2AE939E96C
:1009F00049E95FE30E94DD0C2B013C0120E030E07F
:100A000044E752E4C701B6010E94D30D9B01AC013B
:100A1000C301B2010E94D30D2B013C0122E133E856
:100A200040EC5DE3C501B4010E94DD0C9B01AC010B
:100A3000C301B2010E94D30D20E030E040E05FE34B
:100A40000E94DD0C2B013C0120E030E04EE952E435
:100A50000E943F0E18160CF023C1A7019601C70192
:100A6000B6010E94DD0C2B013C01A5019401C501DA
:100A7000B4010E94DD0C6D837E838F83988721E112
:100A800033E243E050E4C701B6010E94DD0C29E1E6
:100A900034E849E252E40E94D20D69837A838B8361
:100AA0009C8326E13BE442E251E4C501B4010E948B
:100AB000DD0C9B01AC0169817A818B819C810E9454
:100AC000D30D69837A838B839C8328E436E246E6E0
:100AD0005EEBC701B6010E94DD0CA50194010E94E6
:100AE000DD0C9B01AC0169817A818B819C810E9424
:100AF000D30D69837A838B839C8320EE3FE040EEA5
:100B00005BEBC301B2010E94DD0C9B01AC0169816A
:100B10007A818B819C810E94D30D69837A838B8338
:100B20009C8328EF37E840E65DEB6D817E818F8105
:100B300098850E94DD0C9B01AC0169817A818B81D3
:100B40009C810E94D30D69837A838B839C832CEADA
:100B50003DE041EA5AE3C301B2010E94DD0CA50168
:100B600094010E94DD0C9B01AC0169817A818B812B
:100B70009C810E94D30D69837A838B839C8328ECAC
:100B80003FE84FE55AE3C701B6010E94DD0C2D8115
:100B90003E814F8158850E94DD0C9B01AC0169812B
:100BA0007A818B819C810E94D30D69837A838B83A8
:100BB0009C8321EF3BE845E056EBC301B2010E9464
:100BC000DD0C2D813E814F8158850E94DD0C9B01FB
:100BD000AC0169817A818B819C810E94D30D2B01AC
:100BE0003C0120E030E040E551E4C501B4010E9441
:100BF000770C87FF88C020E030E040EA52E4C7016C
:100C0000B6010E943F0E87FD7EC020E030E040EE3E
:100C100052E4C701B6010E94770C18160CF4BDC04F
:100C2000A501940160E070E080E591E40E94D20D9E
:100C300020E030E040E85EE30E94DD0C4B015C0107
:100C400020E030E04EEB52E4C701B6010E94D20D25
:100C50006B017C0120E030E0A9010E943F0E1816D4
:100C60000CF048C0A701960160E070E088E891E4CC
:100C70000E94D20D2EE33DEE40E75DE30E94DD0CC5
:100C80000E944A0E9B01AC01C501B4010E94DD0C1B
:100C90009B01AC01C301B2010E94D20D2B013C01AA
:100CA000011110C020E030E040E052E4C301B20185
:100CB0000E94D20D26E838E34EE05FE30E94DD0C8F
:100CC0002B013C01C301B20128960FB6F894DEBF98
:100CD0000FBECDBFDF91CF910F91FF90EF90DF90CE
:100CE000CF90BF90AF909F908F907F906F905F90CC
:100CF0004F90089520E030E048E851E4C701B60184
:100D00000E94D30DB7CF20E030E04AEA52E4C5019B
:100D1000B4010E943F0E18161CF620E030E040EAB5
:100D200052E4C701B6010E943F0E87FDB9CF20E013
:100D300030E04EEA52E4C701B6010E94770C181663
:100D40000CF4AECF20E030E04AEA52E4C501B40131
:100D50000E94D20D2DEC3CEC4CEC5DE30E94DD0CCE
:100D60004B015C01A701960160E070E08EEA92E41D
:100D70000E94D20D2DEC3CEC4CE45EE30E94DD0CB5
:100D80009B01AC01C501B4010E94DD0C9B01AC01CB
:100D9000C301B2010E94D30D81CF20E030E04AEAC6
:100DA00052E4C501B4010E943F0E18160CF4BFCFE7
:100DB00077CFCF93DF93EC0188819981009711F071
:100DC0000E94460F198218821D821C821B821A8281
:100DD000DF91CF910895FC0180819181009711F0FE
:100DE0000C94460F08950F931F93CF93DF93EC015C
:100DF00088819981009759F02A813B81261737070E
:100E000030F081E0DF91CF911F910F9108958B0118
:100E10006F5F7F4F0E94CF0F009759F099838883AF
:100E20001B830A832C813D81232B59F7FC011082FF
:100E3000E8CF80E0E7CFCF92DF92EF92FF920F935F
:100E40001F93CF93DF93CDB7DEB7A1970FB6F8947A
:100E5000DEBF0FBECDBF7C01CB01BA01F70111820D
:100E6000108213821282158214828E010F5F1F4F2F
:100E700022E044E00E94220A6C01009771F0FC011C
:100E800001900020E9F731978F01081B190BB80179
:100E9000C7010E94F306811112C0C7010E94D90642
:100EA000A1960FB6F894DEBF0FBECDBFDF91CF91F4
:100EB0001F910F91FF90EF90DF90CF900895F70171
:100EC00015830483B601808191810E949510E8CF3B
:100ED0001F920F920FB60F9211242F933F938F936F
:100EE0009F93AF93BF9380913D0190913E01A0915C
:100EF0003F01B09140013091380123E0230F2D379D
:100F000058F50196A11DB11D2093380180933D0134
:100F100090933E01A0933F01B0934001809139012D
:100F200090913A01A0913B01B0913C010196A11D25
:100F3000B11D8093390190933A01A0933B01B09386
:100F40003C01BF91AF919F918F913F912F910F9055
:100F50000FBE0F901F90189526E8230F0296A11D33
:100F6000B11DD2CF1F920F920FB60F9211242F9363
:100F70003F934F935F936F937F938F939F93AF9321
:100F8000BF93EF93FF9381E491E00E942C04FF91C3
:100F9000EF91BF91AF919F918F917F916F915F91F1
:100FA0004F913F912F910F900FBE0F901F9018956A
:100FB0001F920F920FB60F9211242F938F939F932E
:100FC000EF93FF93E0915101F09152018081E09104
:100FD0005701F091580182FD1BC0908180915A0108
:100FE0008F5F8F7320915B01821741F0E0915A016E
:100FF000F0E0EF5BFE4F958F80935A01FF91EF91E8
:101000009F918F912F910F900FBE0F901F90189569
:101010008081F4CFE1E4F1E01382128288EE93E064
:10102000A0E0B0E084839583A683B7838AE091E053
:101030009183808385EC90E09587848784EC90E0B1
:101040009787868780EC90E0918B808B81EC90E095
:10105000938B828B82EC90E0958B848B86EC90E076
:10106000978B868B118E128E138E148EAEEDB1E09F
:1010700082E015968C93159786E116968C931697B9
:10108000EAEAF1E0E4911796EC931797E6E9F1E0CC
:10109000E4911896EC93189740E85EE360E070E006
:1010A0001D964D935D936D937C9350970895CF93C8
:1010B000DF93CDB7DEB762970FB6F894DEBF0FBEF1
:1010C000CDBF789484B5826084BD84B5816084BDD1
:1010D00085B5826085BD85B5816085BD80916E00D6
:1010E000816080936E001092810080918100826007
:1010F0008093810080918100816080938100809144
:1011000080008160809380008091B1008460809332
:10111000B1008091B00081608093B00080917A002E
:10112000846080937A0080917A00826080937A0054
:1011300080917A00816080937A0080917A00806843
:1011400080937A001092C100E0915101F091520118
:1011500082E08083E0914D01F0914E011082E09198
:101160004F01F09150018FEC808310925901E09172
:101170005501F091560186E08083E0915301F09192
:101180005401808180618083E0915301F09154018A
:10119000808188608083E0915301F09154018081C7
:1011A00080688083E0915301F091540180818F7DAC
:1011B000808361E08DE00E94170262E08091E3018C
:1011C0000E9417022FB7F89480913D0190913E0143
:1011D000A0913F01B09140012FBF805D9740A109D0
:1011E000B1098093E7019093E801A093E901B093DE
:1011F000EA0187E38093F00100E010E060ED77E022
:1012000080E090E00E946D0261E08DE00E94CB01E1
:101210000E949F02882351F08091E4018B3030F0CE
:101220008D3058F08551823008F46CC0C12CD12C1F
:1012300020ECE22E2FE7F22E1EC06091DF0170E05D
:1012400090E080E00E947E0C2DEC3CEC4CEC5DE3E9
:101250000E94DD0C6B017C016091DE0170E090E08A
:1012600080E00E947E0C9B01AC01C701B6010E9488
:10127000D30D6B017C010E949F02812C912C90EC7C
:10128000A92E9FE7B92E882329F080E00E9409014A
:101290004B015C010E949F02882309F445C081E054
:1012A0000E9409012B013C01A7019601C701B6016B
:1012B0000E948A0E811110C0A5019401C501B401DC
:1012C0000E948A0E811108C0A3019201C301B201DC
:1012D0000E948A0E882379F149E150E06BE171E0C8
:1012E00081E491E00E94AE030E94BB040115110548
:1012F00009F484CF0E941804882309F47FCF0E9448
:1013000000007CCF6091DE017091DF0176276727B6
:10131000762790E080E00E947C0C2DEC3CEC4CECBD
:101320005DE30E94DD0CA5CF412C512C80EC682E92
:101330008FE7782EB9CFB501A401CE0101960E94A6
:101340001B07B701A601CE010D960E941B07188648
:101350001F821A8619861C861B86ED84FE84E11482
:10136000F10469F0C988DA88B601CE0107960E94B7
:10137000F306811155C0CE0107960E94D906EB8471
:10138000FC848FEFE81AF80AB701CE0107960E9495
:10139000F306882309F44CC02F8138858B859C8502
:1013A00065E371E0820F931F0E949510FC86EB8627
:1013B000C980DA80C114D10409F43FC0ED80FE80F9
:1013C000E114F104B1F08B859C85E80EF91EB7019C
:1013D000CE0107960E94F306882379F12F81388584
:1013E0008B859C85B601820F931F0E949510FC8609
:1013F000EB864B855C856F81788581E491E00E9466
:10140000AE030E94BB04CE0107960E94EB06CE01FC
:101410000D960E94EB06CE0101960E94EB0666CF68
:10142000DC86CB86B7018F8198850E949510A7CF67
:10143000CE0107960E94D906BBCFCE0107960E9427
:10144000D906D7CFEF920F931F93CF93DF93E80185
:1014500034E047FD34E1042E000C550B57FF03C068
:10146000519541955109E32E022F242FAE010E9480
:10147000400ACE01DF91CF911F910F91EF90089517
:10148000A9E0B0E0E6E4FAE00C94A10D6A01F22EC6
:10149000B02E102FFBE3AF2EA01608F41BE31F5F46
:1014A000012F27E0AE014F5F5F4F0E949F0BBC01F1
:1014B0008981982F9970913009F43FC09BE2E1FC3B
:1014C00004C09E2D9170E0FC3AC05E2D5071E82F53
:1014D000E87083FF46C084E0911101C083E0EF2DE6
:1014E000E81B8F1508F0E0E0D6018E2F20E255238F
:1014F00051F1992329F0D6019C93C60101966C0104
:1015000096012D5F3F4FE2FE24C08EE4D6018C93FE
:1015100091E411969C93119712968C93D9018E2F7A
:1015200090E281111BC0E20FF32FF11D10828EEFAC
:101530009FEF2996ECE00C94BD0D9DE2C6CF90E2A2
:10154000C4CF2D9381508111FCCFCE0ED11CE0E091
:10155000D0CF8EE6D6018C9391E6DBCF9D93815060
:10156000E0CF482F447082FF3DC084E0911101C05C
:1015700083E08F1510F4EF2DE81BD6018E2F20E2AB
:10158000552309F1992329F0D6019C93C6010196B0
:101590006C0196012D5F3F4FE2FE1BC089E4D6012E
:1015A0008C938EE411968C93119786E412968C930B
:1015B000D9018E2F90E2882309F4B5CF9D938150F5
:1015C000FACF2D9381508111FCCFCE0ED11CE0E0DB
:1015D000D9CF89E6D6018C938EE611968C9311971C
:1015E00086E6E4CF9B0177FF02C030E020E0A1E077
:1015F000B0E0911102C0B0E0A0E0F9013196AE0F69
:10160000BF1F8B2C912CBB2009F461C05401EFEF5C
:10161000AE1ABE0AAA0DBB1DFA161B0619F014F06D
:101620004F2D4A1B511188C0E3FC59C07601A42FED
:10163000B0E2A1114FC0C40ED11C992309F45BC0C4
:1016400040E0D6011196F60190836D01552309F40F
:1016500048C0012F060F9A81582F507184FF03C094
:10166000913309F4015010160CF047C0093008F00E
:1016700008E0EEE2FE2E5B01A01AB108850191940C
:10168000819491082F3F320729F4D601FC92F6018C
:1016900031966F016217730794F1021713077CF5F7
:1016A000DB01A21BB30BAA24A394B12CAC0EBD1E6C
:1016B000AA0DBB1D11968C9121503109D6011196AE
:1016C00028153905F4F0F60180836D01DBCFB12CCC
:1016D000A12CA0CFF701B1937F01A150AACF911106
:1016E000B0CFD601942F50E302C05D939150911179
:1016F000FCCFC40ED11C40E0ACCF01E0BACF80E3F8
:10170000DBCF6217730731F4963388F4953311F405
:10171000552369F0F6018083FD01842F90E2811149
:1017200008C0A40FB11D1C9290E080E002CF81E3BD
:10173000F1CF91938150F3CF911183CF8ACF28308D
:1017400008F027E03327DA01990F311D87FD9160FA
:1017500000966105710539F432602E5F3D9330E3E8
:101760002A95E1F708959F3F30F0803871056105B3
:1017700009F03C5F3C5F3D93913008F08068911D1B
:10178000DF93CF931F930F93FF92EF92192F987FC0
:101790009695E92F96959695E90FFF27EE53FF4F03
:1017A00099273327EE24FF24A701E7010590089429
:1017B000079428F4360FE71EF81E491F511D660FC7
:1017C000771F881F991F0694A1F70590079428F4A6
:1017D000E70EF81E491F561FC11D770F881F991F5E
:1017E000661F0694A1F70590079428F4F80E491F88
:1017F000561FC71FD11D880F991F661F771F06949C
:10180000A1F70590079420F4490F561FC71FD81F52
:10181000990F661F771F881F0694A9F7849110956A
:10182000177041F0D695C79557954795F794E7946B
:101830001A95C1F7E8E6F0E0689415901591359196
:101840006591959105907FE27395E118F10A430B3C
:10185000560BC90BD009C0F7E10CF11E431F561FF0
:10186000C91FD01D7EF4703311F48A95E6CFE89439
:10187000015030F0080F0AF40027021708F4202F57
:101880002395022F7A3328F079E37D932A95E9F79F
:1018900010C07D932A9589F606949795679537959C
:1018A00017951794E118F10A430B560BC90BD00991
:1018B00098F023957E9173957A3308F070E37C93CA
:1018C0002013B8F77E9170617D9330F0839571E3BA
:1018D0007D9370E32A95E1F71124EF90FF900F912B
:1018E0001F91CF91DF91992787FD909508950E94D0
:1018F000B90C08F481E00895E89409C097FB3EF420
:1019000090958095709561957F4F8F4F9F4F99234C
:10191000A9F0F92F96E9BB279395F69587957795CA
:101920006795B795F111F8CFFAF4BB0F11F460FF8A
:101930001BC06F5F7F4F8F4F9F4F16C0882311F0E2
:1019400096E911C0772321F09EE8872F762F05C0F6
:10195000662371F096E8862F70E060E02AF09A9591
:10196000660F771F881FDAF7880F9695879597F986
:101970000895990F0008550FAA0BE0E8FEEF161620
:101980001706E807F907C0F012161306E407F50773
:1019900098F0621B730B840B950B39F40A2661F0E7
:1019A000232B242B252B21F408950A2609F4A1408A
:1019B000A6958FEF811D811D08950E94F00C0C9457
:1019C000610D0E94530D38F00E945A0D20F09523AE
:1019D00011F00C944A0D0C94500D11240C94950D9B
:1019E0000E94720D70F3959FC1F3950F50E0551F43
:1019F000629FF001729FBB27F00DB11D639FAA2764
:101A0000F00DB11DAA1F649F6627B00DA11D661FB2
:101A1000829F2227B00DA11D621F739FB00DA11DD3
:101A2000621F839FA00D611D221F749F3327A00D8D
:101A3000611D231F849F600D211D822F762F6A2F29
:101A400011249F5750409AF0F1F088234AF0EE0F8E
:101A5000FF1FBB1F661F771F881F91505040A9F7BB
:101A60009E3F510580F00C944A0D0C94950D5F3FFC
:101A7000E4F3983ED4F3869577956795B795F795F7
:101A8000E7959F5FC1F7FE2B880F911D969587956F
:101A900097F9089597F99F6780E870E060E00895EE
:101AA0009FEF80EC089500240A9416161706180676
:101AB0000906089500240A94121613061406050652
:101AC0000895092E0394000C11F4882352F0BB0FE3
:101AD00040F4BF2B11F460FF04C06F5F7F4F8F4F46
:101AE0009F4F089557FD9058440F551F59F05F3F81
:101AF00071F04795880F97FB991F61F09F3F79F030
:101B000087950895121613061406551FF2CF4695B1
:101B1000F1DF08C0161617061806991FF1CF869533
:101B20007105610508940895E894BB276627772717
:101B3000CB0197F908952F923F924F925F926F9247
:101B40007F928F929F92AF92BF92CF92DF92EF924D
:101B5000FF920F931F93CF93DF93CDB7DEB7CA1BCE
:101B6000DB0B0FB6F894DEBF0FBECDBF09942A88F9
:101B7000398848885F846E847D848C849B84AA84A1
:101B8000B984C884DF80EE80FD800C811B81AA812E
:101B9000B981CE0FD11D0FB6F894DEBF0FBECDBFF9
:101BA000ED0108955058BB27AA270E94EA0D0C9416
:101BB000610D0E94530D38F00E945A0D20F039F447
:101BC0009F3F19F426F40C94500D0EF4E095E7FBBA
:101BD0000C944A0DE92F0E94720D58F3BA17620750
:101BE00073078407950720F079F4A6F50C94940DFB
:101BF0000EF4E0950B2EBA2FA02D0B01B901900128
:101C00000C01CA01A0011124FF27591B99F0593F6B
:101C100050F4503E68F11A16F040A22F232F342FB3
:101C20004427585FF3CF469537952795A795F04001
:101C30005395C9F77EF41F16BA0B620B730B840B16
:101C4000BAF09150A1F0FF0FBB1F661F771F881FCE
:101C5000C2F70EC0BA0F621F731F841F48F4879526
:101C600077956795B795F7959E3F08F0B0CF939518
:101C7000880F08F09927EE0F9795879508950E9491
:101C8000B90C08F48FEF089519F416F40C94500D64
:101C90000C948F0E0E947A0DB8F39923C9F3B6F312
:101CA0009F57550B87FF0E949D0E0024A0E640EA37
:101CB000900180585695979528F4805C660F771FA1
:101CC000881F20F026173707480730F4621B730B74
:101CD000840B202931294A2BA69517940794202597
:101CE00031254A2758F7660F771F881F20F02617DF
:101CF0003707480730F4620B730B840B200D311D3E
:101D0000411DA09581F7B901842F9158880F9695B0
:101D1000879508950E94B90C880B990B08959F3FF1
:101D200031F0915020F4879577956795B795880F96
:101D3000911D9695879597F9089591505040660F9B
:101D4000771F881FD2F70895EE0FFF1F0590F491BB
:101D5000E02D09940F931F93CF93DF938230910569
:101D600010F482E090E0E091F301F091F40130E0B2
:101D700020E0B0E0A0E0309799F42115310509F496
:101D80004AC0281B390B24303105D8F58A819B8144
:101D90006115710589F1FB0193838283FE0111C0F6
:101DA000408151810281138148175907E0F048179B
:101DB000590799F4109761F012960C9312971396A5
:101DC0001C933296CF01DF91CF911F910F9108950F
:101DD0000093F3011093F401F4CF2115310551F074
:101DE0004217530738F0A901DB019A01BD01DF0159
:101DF000F801C1CFEF01F9CF9093F4018093F30183
:101E0000CDCFFE01E20FF31F819391932250310950
:101E100039832883D7CF2091F1013091F201232B10
:101E200041F420910201309103013093F20120939B
:101E3000F10120910001309101012115310541F49A
:101E40002DB73EB74091040150910501241B350B7D
:101E5000E091F101F091F201E217F307A0F42E1BDB
:101E60003F0B2817390778F0AC014E5F5F4F2417FE
:101E7000350748F04E0F5F1F5093F2014093F10178
:101E8000819391939FCFF0E0E0E09CCFCF93DF93DD
:101E90000097E9F0FC01329713821282A091F301BE
:101EA000B091F401ED0130E020E01097A1F4208121
:101EB0003181820F931F2091F1013091F201281797
:101EC000390709F061C0F093F201E093F101DF916D
:101ED000CF910895EA01CE17DF07E8F54A815B81CB
:101EE0009E0141155105B1F7E901FB83EA83499150
:101EF0005991C40FD51FEC17FD0761F480819181C2
:101F00000296840F951FE9019983888382819381CA
:101F10009B838A83F0E0E0E012968D919C91139769
:101F20000097B9F52D913C911197CD010296820F42
:101F3000931F2091F1013091F2012817390739F6EA
:101F4000309751F51092F4011092F301B093F20121
:101F5000A093F101BCCFD383C28340815181840F10
:101F6000951FC817D90761F44E5F5F4F888199812B
:101F7000480F591F518340838A819B8193838283B9
:101F80002115310509F0B0CFF093F401E093F3018E
:101F90009ECFFD01DC01C0CF13821282D7CFB0E00B
:101FA000A0E0E5EDFFE00C949D0D8C01009751F44D
:101FB000CB010E94AA0E8C01C801CDB7DEB7E0E1CB
:101FC0000C94B90DFC01E60FF71F9C01225031095A
:101FD000E217F30708F49DC0D901CD91DC91119768
:101FE000C617D70798F0C530D10530F3CE01049756
:101FF0008617970708F3C61BD70B2297C193D19377
:102000006D937C93CF010E94460FD6CF5B01AC1A33
:10201000BD0A4C018C0E9D1EA091F301B091F401FC
:10202000512C412CF12CE12C109731F58091F101CC
:102030009091F2018815990509F05CC04616570683
:1020400008F058C08091000190910101009741F47F
:102050008DB79EB74091040150910501841B950BEB
:10206000E817F90708F055C0F093F201E093F10189
:10207000F90171836083A0CF8D919C911197129685
:102080006C90129713967C901397A815B90559F583
:102090006C0142E0C40ED11CCA14DB0420F1AC0177
:1020A0004A195B09DA011296159780F062827382F1
:1020B00051834083D9016D937C93E114F10471F055
:1020C000D7011396FC93EE93129776CF22968C0F3E
:1020D0009D1FF90191838083F301EFCFF093F40109
:1020E000E093F30169CF4816590608F42C017D01ED
:1020F000D3019ACFCB010E94AA0E7C01009749F030
:10210000AE01B8010E948C10C8010E94460F8701E1
:1021100053CF10E000E050CFFB01DC0102C0019082
:102120000D9241505040D8F70895FB01DC01019019
:0C2130000D920020E1F70895F894FFCF15
:10213C000000F5018000000000004E04AE03DB033C
:10214C009B040C04EA03FE030D0A0053656E736FC7
:10215C00722066616C686F75206E61206C656974A5
:08216C007572612100200000E2
:00000001FF
